S01000006C63645F646973702E73726563D2
S11300000C9434000C9449000C9449000C9449005D
S11300100C9449000C9449000C9449000C94490038
S11300200C9449000C9449000C9449000C94490028
S11300300C9449000C9449000C9449000C94490018
S11300400C9449000C9449000C9449000C94490008
S11300500C9449000C9449000C9449000C944900F8
S11300600C9449000C94490011241FBECFEFD8E032
S1130070DEBFCDBF11E0A0E0B1E0E4EEF1E002C0EC
S113008005900D92A830B107D9F70E94D8000C94BE
S1130090F0000C940000299A85E08A95F1F700009D
S11300A029980895CF93C82F662311F0289A01C088
S11300B02898549A559A569A579A5F985E985D98DC
S11300C05C98CC230CF45F9AC6FD5E9AC5FD5D9ADC
S11300D0C4FD5C9A0E944B005F985E985D985C98A2
S11300E0C3FD5F9AC2FD5E9AC1FD5D9AC0FD5C9A34
S11300F00E944B005C9A5D9A5E9A5F9A87EB9BE044
S11301000197F1F700C00000CF91089560E00E94CC
S11301105200089561E00E945200089581E00E9417
S11301208600089561E00E9452000895CF93C82F7D
S1130130209A559A219A549A559A569A579A8FEF1B
S113014099EF0197F1F700C000005D9A5C9A0E9454
S11301504B008FE19EE40197F1F700C000000E947C
S11301604B008FEF90E00197F1F700C000000E9470
S11301704B008FEF90E00197F1F700C000005C980E
S11301800E944B008FEF90E00197F1F700C0000050
S113019088E20E94860088E00E9486000E948E0009
S11301A086E00E9486008C2F0E948600CF910895DD
S11301B08CE00E94960080E40E948600C0E0D1E0BA
S11301C008E011E089910E948A00C017D107D1F795
S11301D080E80E94860080E00E9492007894FFCF1D
S10701E0F894FFCFBD
S10B01E4070E1C181C0E070392
S9030000FC
